:100000000C9434000C9451000C9451000C94510049
:100010000C9451000C9451000C9451000C9451001C
:100020000C9451000C9451000C9451000C9451000C
:100030000C9451000C9451000C9451000C945100FC
:100040000C9451000C9451000C9451000C945100EC
:100050000C9451000C9451000C9451000C945100DC
:100060000C9451000C94510011241FBECFEFD8E026
:10007000DEBFCDBF12E0A0E0B1E0E2E6F8E002C0F2
:1000800005900D92AC33B107D9F722E0ACE3B2E0B2
:1000900001C01D92A234B207E1F70E94BA000C948D
:1000A0002F040C940000009719F0019731F0089587
:1000B0006230710531F4459808956130710509F495
:1000C000459A0895009721F081309105C1F0089577
:1000D0006230710551F51F9282E08F931F921F923B
:1000E0008CE191E09F938F930E9421010F900F90DC
:1000F0000F900F900F900F9081E090E00895613085
:10010000710599F41F9281E08F931F928F9389E478
:1001100091E09F938F930E9421010F900F900F9079
:100120000F900F900F9080E090E008954C9910C0D0
:100130002FEF80E792E0215080409040E1F700C02F
:10014000000085E791E00E94370181E090E008958A
:100150004B99ECCF2FEF80E792E021508040904008
:10016000E1F700C000008FE891E00E94370182E0D3
:1001700090E008950E940E011F92C1E0CF931F925C
:100180001F928AEA91E09F938F930E9421011F9210
:1001900082E08F931F92CF931F921F928BEE91E07C
:1001A0009F938F930E9421013D9A45988BB188615E
:1001B0008BB98AB1877E8AB98DB79EB70E960FB676
:1001C000F8949EBF0FBE8DBFC1E0D0E00E949600A4
:1001D0008C01BC01CE010E945300B801CE010E94E7
:1001E0006200EC01F3CFCF93C82F8A3019F48DE071
:1001F0000E94F300E0ECF0E0808185FFFDCFC0932A
:10020000C60080E090E0CF910895E0ECF0E08081BE
:100210008823ECF78091C60090E008951092C50005
:1002200083E38093C40088E18093C100ECE3F2E0B3
:100230008EE091E09383828380E091E091838083DC
:100240000895A0E0B0E0E7E2F1E00C940804AE010C
:100250004B5F5F4FFA0161917191AF0180913E0256
:1002600090913F020E946701E2E00C9424040F93F6
:100270001F93CF93DF93E0913E02F0913F022381E1
:1002800021FF1BC08C01D0E0C0E0F80181918F01FB
:1002900060913E0270913F02DB011896ED91FC9156
:1002A0001997882331F00995892B79F3DFEFCFEF88
:1002B000ECCF8AE00995892B19F08FEF9FEF02C0F0
:1002C0008D2F9C2FDF91CF911F910F910895ABE05F
:1002D000B0E0EDE6F1E00C94F8036C017B018A01DB
:1002E000FC0117821682838181FFCCC1CE01019669
:1002F0003C01F6019381F70193FD859193FF819174
:100300007F01882309F4BAC1853239F493FD8591C0
:1003100093FF81917F01853229F4B60190E00E941C
:100320005E03E7CF912C212C312CFFE1F315D8F09F
:100330008B3279F038F4803279F08332A1F4232DB6
:1003400020611DC08D3261F0803369F4232D21605E
:1003500016C0832D8260382EE32DE4603E2E2AC025
:10036000F32DF8601DC037FC2DC020ED280F2A307A
:1003700040F08E32B9F436FC81C1232D2064322E38
:1003800019C036FE06C08AE0989E200D1124922ED8
:1003900011C0EAE02E9E200D1124222EF32DF062D2
:1003A0003F2E08C08C3621F4832D8068382E02C081
:1003B000883641F4F70193FD859193FF81917F0188
:1003C0008111B3CF982F9F7D9554933028F40C5F03
:1003D0001F4F9FE399830DC0833631F0833771F04F
:1003E000833509F059C021C0F801808189830E5FEF
:1003F0001F4F88248394912C530113C02801F2E0ED
:100400004F0E511CF801A080B18036FE03C0692D4B
:1004100070E002C06FEF7FEFC5010E9453034C01F3
:100420008201F32DFF773F2E16C0280122E0420EF5
:10043000511CF801A080B18036FE03C0692D70E028
:1004400002C06FEF7FEFC5010E9448034C01F32DFE
:10045000F0683F2E820133FC1BC0822D90E088168D
:100460009906B0F4B60180E290E00E945E032A94FF
:10047000F4CFF50137FC859137FE81915F01B6011C
:1004800090E00E945E0321102A9421E0821A9108D4
:100490008114910471F7E8C0843611F0893641F572
:1004A000F80137FE07C060817181828193810C5F02
:1004B0001F4F08C060817181072E000C880B990BBB
:1004C0000E5F1F4FF32DFF763F2E97FF09C09095CB
:1004D0008095709561957F4F8F4F9F4FF0683F2EAD
:1004E0002AE030E0A3010E949A03882E861845C0B6
:1004F000853731F4232D2F7EB22E2AE030E025C03F
:10050000932D997FB92E8F36C1F018F4883579F084
:10051000B5C0803719F0883721F0B0C0E92FE0610D
:10052000BE2EB4FE0DC0FB2DF460BF2E09C034FEFC
:100530000AC0292F2660B22E06C028E030E005C090
:1005400020E130E002C020E132E0F801B7FE07C050
:1005500060817181828193810C5F1F4F06C0608131
:10056000718180E090E00E5F1F4FA3010E949A030B
:10057000882E8618FB2DFF773F2E36FE0DC0232DCB
:100580002E7FA22E891458F434FE0BC032FC09C011
:10059000832D8E7EA82E05C0B82CA32C03C0B82CAA
:1005A00001C0B92CA4FE0FC0FE01E80DF11D808131
:1005B000803321F49A2D997EA92E09C0A2FE06C08F
:1005C000B394B39404C08A2D867809F0B394A3FC45
:1005D00011C0A0FE06C0B21488F4280C922C9B18FF
:1005E0000EC0B21460F4B60180E290E00E945E0397
:1005F000B394F7CFB21418F42B1802C0982C212C06
:10060000A4FE10C0B60180E390E00E945E03A2FE4B
:1006100017C0A1FC03C088E790E002C088E590E025
:10062000B6010CC08A2D867859F0A1FE02C08BE27B
:1006300001C080E2A7FC8DE2B60190E00E945E035B
:10064000891438F4B60180E390E00E945E039A9426
:10065000F7CF8A94F301E80DF11D8081B60190E097
:100660000E945E038110F5CF222009F442CEB6012C
:1006700080E290E00E945E032A94F6CFF601868124
:10068000978102C08FEF9FEF2B96E2E10C94140448
:10069000FC010590615070400110D8F7809590954D
:1006A0008E0F9F1F0895FC01615070400190011052
:1006B000D8F7809590958E0F9F1F08950F931F93E5
:1006C000CF93DF93FB01238121FD03C08FEF9FEFC9
:1006D0002CC022FF16C046815781248135814217E4
:1006E000530744F4A081B1819D012F5F3F4F3183B7
:1006F00020838C93268137812F5F3F4F378326835A
:1007000014C08B01EC01FB010084F185E02D0995FB
:10071000892BE1F6D80116968D919C911797019639
:1007200017969C938E931697CE01DF91CF911F91D0
:100730000F910895FA01AA27283051F1203181F153
:10074000E8946F936E7F6E5F7F4F8F4F9F4FAF4FD9
:10075000B1E03ED0B4E03CD0670F781F891F9A1FEC
:10076000A11D680F791F8A1F911DA11D6A0F711DA0
:10077000811D911DA11D20D009F468943F912AE0AC
:10078000269F11243019305D3193DEF6CF01089594
:10079000462F4770405D4193B3E00FD0C9F7F6CFC5
:1007A000462F4F70405D4A3318F0495D31FD40528D
:1007B000419302D0A9F7EACFB4E0A6959795879523
:1007C00077956795BA95C9F7009761057105089502
:1007D0009B01AC010A2E06945795479537952795AE
:1007E000BA95C9F7620F731F841F951FA01D089546
:1007F0002F923F924F925F926F927F928F929F9231
:10080000AF92BF92CF92DF92EF92FF920F931F931E
:10081000CF93DF93CDB7DEB7CA1BDB0B0FB6F894CF
:10082000DEBF0FBECDBF09942A88398848885F840F
:100830006E847D848C849B84AA84B984C884DF8080
:10084000EE80FD800C811B81AA81B981CE0FD11D64
:100850000FB6F894DEBF0FBECDBFED010895F8943A
:02086000FFCFC8
:10086200000000010000000000000501000000007F
:10087200000200000000F3000000000053746174E5
:1008820065206973203D2025642C206576656E7491
:1008920020697320256420616E64206C6967687426
:1008A200206973204F46460A0053746174652069BB
:1008B20073203D2025642C206576656E7420697353
:1008C20020256420616E64206C69676874206973F6
:1008D200204F4E0A00427574746F6E204F4E206591
:1008E20076656E7420646574656374656420004285
:1008F2007574746F6E204F4646206576656E74205F
:1009020064657465637465642000456E756D20537B
:1009120074617465206861732074686573652076FC
:10092200616C7565733A200A535F4C494748545FBE
:100932004F4E203D2025640A535F4C494748545F7F
:100942004F4646203D2025640A0A00456E756D20FB
:100952004576656E742068617320746865736520DE
:1009620076616C7565733A200A4E4F5F4556454E67
:1009720054203D2025640A455F425554544F4E5F32
:100982004F4E203D2025640A455F425554544F4E38
:0C0992005F4F4646203D2025640A0A0005
:00000001FF
